:020000041000EA
:1000000000B5324B212058609868022188439860DF
:10001000D860186158612E4B002199600221596106
:100020000121F02299502B49196001219960352056
:1000300000F044F80222904214D00621196600F024
:1000400034F8196E01211966002018661A6600F04E
:100050002CF8196E196E196E052000F02FF8012189
:100060000842F9D1002199601B49196000215960AB
:100070001A491B48016001219960EB211966A021F2
:10008000196600F012F800219960164914480160C1
:100090000121996001BC002800D000471248134993
:1000A000086003C880F30888084703B5996A0420EC
:1000B0000142FBD001200142F8D103BD02B5186610
:1000C0001866FFF7F2FF186E186E02BD00000240BE
:1000D000000000180000070000035F00212200005C
:1000E000F4000018222000A00001001008ED00E03C
:1000F00000000000000000000000000074B24E7A12
:1001000000200420F7010010C3010010C5010010F9
:10011000C1010010C1010010C1010010C101001097
:10012000C1010010C1010010C1010010C701001081
:10013000C1010010C1010010C9010010CB01001065
:10014000CD010010CD010010CD010010CD01001037
:10015000CD010010CD010010CD010010CD01001027
:10016000CD010010CD010010CD010010CD01001017
:10017000CD010010CD010010CD010010CD01001007
:10018000CD010010CD010010CD010010CD010010F7
:10019000CD010010CD010010CD010010CD010010E7
:1001A000CD010010CD010010CD010010CD010010D7
:1001B000CD010010CD010010CD010010CD010010C7
:1001C00000BE00BE00BE00BE00BE00BEEFF3058054
:1001D000103800BEF2EB8871142701103C27011083
:1001E0003402001090A31AE700201F49086006C8D7
:1001F00081F3088810471D48006800282FD10DA4FE
:100200000ECC002902D000F012F8F9E71849194A7B
:10021000002000E001C19142FCD1174988471749ED
:1002200088471749884700BEFDE701C901C29A42C5
:10023000FBD370473C270110C0000020101800209D
:100240008C3E011000000420000004208C3E0110B0
:10025000001004200010042000000000704709482E
:1002600003F03AFC0047000008ED00E0000000D079
:1002700010180020981D0020B5270010E104001080
:10028000772700105756000006005250ABB360535A
:100290001402011006005250861C030224020110B1
:1002A000060052505422A29D340201100500525003
:1002B000DE65F4688C3E0110F8B5C0460648074973
:1002C000091A8B10C90FC91810B5491003D0044B77
:1002D000002B00D0984710BD1018002010180020E7
:1002E00000000000054B10B5002B03D00449054861
:1002F00000E000BFFFF7E2FF10BDC04600000000B5
:100300004C1B0020C0F7001010B504001F2100F0A6
:10031000D3FC00220021200000F0E6FC0021200098
:1003200000F0FCFC10BD10B50400162383610433FB
:10033000C36101330362013343620133836204F01A
:100340007BFEA069FFF7E0FFE069FFF7DDFF206AB1
:10035000FFF7DAFF606AFFF7D7FFA06AFFF7D4FF65
:10036000200010BD10B50400074B0360074B5B680D
:1003700002210B40064A116002311160054A1360E8
:1003800000F054F9200010BDC8F7001000C0034071
:1003900004F0034004E0034010B50400FFF7E2FF5F
:1003A0000C21200004F020FB200010BD10B504003B
:1003B00000F054F9014B2360200010BDC8F7001075
:1003C00010B50400024B036000F028F8200010BDB7
:1003D000D8F7001010B50400FFF7F2FF1421200039
:1003E00004F002FB200010BD10B5040000F026F858
:1003F000094B2360052363720133A3720133E37257
:1004000001332373033363730133A3730133E37342
:1004100001332374200010BDD8F70010014B036096
:100420007047C046E8F7001010B50400FFF7F6FF6C
:100430000C21200004F0D8FA200010BD024B03600C
:10044000416002727047C046E8F7001010B5040022
:10045000024B0360FFF7E2FF200010BDF8F7001029
:1004600010B50400FFF7F2FF1021200004F0BCFAE1
:10047000200010BD10B50400D2B2FFF7DFFF084B1B
:100480002360002363720333A3720233E372033BDE
:100490002373023363730233A373200010BDC0467D
:1004A000F8F7001010B50400024B0360FFF7B6FF29
:1004B000200010BD08F8001010B50400FFF7F2FF8F
:1004C0000C21200004F090FA200010BD10B50400AB
:1004D000FFF7B4FF014B2360200010BD08F80010A7
:1004E000F0B5DE4657464E464546E0B5F5B004F059
:1004F0008DFC444D4449280004F01AFE01211020CF
:1005000000F0DAFB0121132000F0D6FB01211220BC
:1005100000F0D2FB0121112000F0CEFB6B6802221B
:1005200013403A490A60296805325140C8320A40EE
:1005300037490A60374A13600322022172A800F08B
:1005400071F80722062170A800F06CF80B220A212E
:100550006EA800F067F80D220C216CA800F062F87C
:100560006AAE0F220E21300000F05CF82A4C67AF13
:10057000502221003800FFF7A9FF5CAB9846180015
:10058000FFF7D1FE57AB9946D62221001800FFF79E
:100590002BFF53AB9A46802221001800FFF76AFF19
:1005A0004FAB9B46822221001800FFF763FF4CAC43
:1005B000112229002000FFF7F9FE96220B945B46DA
:1005C0000A93534609934B4608934346079306976D
:1005D00005966CAB04936EAB039370AB029372AB56
:1005E000019308230093013392010C490CA800F0F9
:1005F000A7F90B4804F0CEFBFA20800001F0EBFADB
:10060000F7E7C04600C0034040420F0004F003403B
:1006100000D0034004E00340981200200080034013
:1006200010F800100160426070470000014B036049
:100630007047C046A80C011010B50400FFF7F6FF84
:100640000C21200004F0D0F9200010BD82680123A5
:100650009340D022120653617047000010B5040089
:1006600008000A4B23606160A260094904F060FD44
:10067000A06800F06BFBA26801239340D022120611
:1006800053622000FFF7E2FF200010BDA80C01100C
:1006900040420F0082B000226B46D91D06E08369FC
:1006A000DB06FCD403680B7001320131002AF6D05E
:1006B0006B46D87902B070470C4B03604B684360BF
:1006C0000B7A03720A4B03604B7A43728B7A837204
:1006D000CB7AC3720B7B03734B7B43738B7B83732C
:1006E000CB7BC3730B7C03747047C046E8F70010E4
:1006F000D8F7001010B5C268CB68D31A9B10541EEF
:10070000A2419B1A5B0202684068101A18188B6895
:100710000A689B1AC01810BD10B5081E02DB04F051
:100720005BF910BD04F03EFD70B506000C0015002D
:1007300006E08021002289003000FFF7EDFF01C4B0
:10074000AC42F6D370BD10B50023802292059142D1
:100750005B41002B03D1880004F03EF910BD8023DB
:10076000DB05994201D304F02DFD04F01BFDF0B52B
:1007700085B004000F004B0A5D1C0822029203336F
:100780000393082B27D802AB19686160002201A8E7
:10079000FFF7D9FF206063685B1B5B089B00C618EE
:1007A000AD0075192A0031002000FFF7BDFF66611A
:1007B0003268E2608021890053182361043D65623C
:1007C0002B68E36159182162A260FF05FF0DDB1958
:1007D000A36105B0F0BD03ABD6E710B5040000235C
:1007E000036043608360C360036143618361C361ED
:1007F000036243620021FFF7BAFF200010BD10B56D
:1008000004002822002104F0DBF82000FFF7E5FFB8
:10081000200010BD10B500238022920591425B415B
:10082000002B03D1880004F0D7F810BD8023DB052E
:10083000994201D304F0C6FC04F0B4FC10B5084B97
:100840008B4205D348004018800004F0C5F810BD65
:10085000044B994201D904F0B5FC04F0A3FCC04656
:10086000AAAAAA0A5555551570B506000C00150020
:1008700005E000222A213000FFF7E0FF01C4AC426E
:10088000F7D370BDF0B585B004000F002A21380001
:1008900003F076F9451C08230293033003900828DF
:1008A0002ED802AB19686160002201A8FFF7B2FFE1
:1008B000206063685B1B5B089B00C618AD00751960
:1008C0002A0031002000FFF7CFFF66613368E36044
:1008D0001A00F932FF322261043D65622D68E5613C
:1008E0002A00F932FF322262A3602A21380003F085
:1008F00047F94B00591889006D18A56105B0F0BD86
:1009000003ABCFE710B504000023036043608360AE
:10091000C360036143618361C36103624362002179
:10092000FFF7B0FF200010BD10B504002822002101
:1009300004F046F82000FFF7E5FF200010BD00009E
:10094000F8B5DE4657464E464546E0B504000F0072
:1009500090469946109B139E149D159A92460160ED
:10096000524A934642605A6882601B7A0373504B26
:10097000436010301299FFF79FFE5B466362736815
:10098000A362327A230024331A724A4A6262717A6D
:100990005972B17A9972F17AD972317B1973717B7C
:1009A0005973B17B99735B4663636B68A363297A60
:1009B00023003433197262636A7A5A72AA7A9A727D
:1009C000EA7ADA722A7B1A736A7B5A73AA7B9A7361
:1009D000394B636453465B68A36453469B68E36486
:1009E000364B6364230050330B9A03CA03C30C9A3B
:1009F00003CA03C30D9A03CA03C30E9A03CA03C3EF
:100A00000F9A03CA03C325007835119E0ECE0EC57A
:100A10000ECE0EC50ECE0EC50CCE0CC52000B030CD
:100A2000FFF7EDFE2000D830FFF77EFF0221484699
:100A300000F042F902210A9800F03EF92068414690
:100A400001F020FC206800230122082101F048FC6D
:100A50002068002101F05AFC23681A003032196B1B
:100A6000C0231B02194080235B011A4311602268D6
:100A70005021916311003431506B382202400B43F6
:100A80001A602368BB420FD015250D49280000F0DD
:100A90005DFA0121280000F049FA2000F0BCBB46B5
:100AA000B246A946A046F8BD1425EEE7E8F70010C7
:100AB00008F80010F8F70010A80C0110C8F7001093
:100AC000930C001070B514000D1A0123042D00DCE6
:100AD0000023DBB2002B06D02A00010020000DF01D
:100AE0006DFE601970BD042DFBD103682360F8E72B
:100AF00070B5030014000D1A0122042D00DC002241
:100B0000D2B2002A06D0601B2A0019000DF056FE52
:100B1000601B70BD042DFBD11A68231F1A60F7E714
:100B2000F0B5D6464F464646C0B584B005000191A3
:100B30009246416A40690E1AB4100134019A1419A0
:100B40006B686700BB421AD92F68BC461B1B5B0849
:100B50009B005446002C01D0920000E000229B181C
:100B600063441C00984204D904311A00FFF7AAFF1D
:100B700030E00431321D9A18FFF7BAFF2AE0291D30
:100B80009A4213D80A689B1802339846002219002B
:100B900003A8FFF7D8FD814643461C1B6408A40048
:100BA0005346002B04D0019B9B0002E001A9E9E71A
:100BB0000023E4184C446869696A04312200FFF795
:100BC00081FF28686968890003F00EFF4B462B609F
:100BD00043466B606C612368EB6080229200944610
:100BE00063442B61A4196C622368EB6163442B623C
:100BF00004B0E0BCBA46B146A846F0BD70B54C1C86
:100C00004268436A05685B1B9B10D31A9C4200D85C
:100C100070BD0022FFF784FFFAE7000070B5040002
:100C20000D00183021000831FFF764FD0F4B98428A
:100C300019D001212000FFF7E1FF666A8021002220
:100C400089002000FFF768FD7060A3692A781A7098
:100C5000636A1A1D62625B68E361802292009A18DF
:100C60002262A36170BD024804F0D4FAFFFFFF7F47
:100C700020F8001010B58269036A013B9A4205D042
:100C80000B78137083690133836110BDFFF7C6FFD2
:100C9000FBE710B582B0040008E0FFF7FBFC6B46F1
:100CA000D91D08702000B030FFF7E4FF2068836989
:100CB000DB06F2D502B010BD10B58300084A944699
:100CC00063441A68402462408034144080225201F8
:100CD00013431C60C000034B9C466044416010BD40
:100CE00004C001400040014080000B4B9C46604422
:100CF00000290DD00823002A0CD0042213430268D7
:100D000053400C221A4080235B0103431A60704752
:100D10000023F0E70022F1E704C00140002909D0D8
:100D20008000094B9C46604480239B010343402282
:100D30001A6070478000044B9C466044C0239B01AE
:100D4000034340221A60F4E704C0014010B50123B8
:100D50008340D0221206936293610521FFF7ACFF16
:100D600010BD0000034B1B6802201840431E984131
:100D7000C0B2704700C00640EFF3108072B6034B5C
:100D80001B68002BFBD0BFF35F8F70472C0100D096
:100D9000BFF35F8F024B00221A6080F31088704708
:100DA0002C0100D0F8B506000C001500FFF7E4FF99
:100DB000E308F718F15C07222240012393400B421D
:100DC00005D1DBB20B433B70FFF7E2FFF8BD21001A
:100DD000280001F06BFD0000002307E0054A9A1887
:100DE0009200BFF35F8F0021116001331F2BF5D9F3
:100DF0007047C04640000034054A1078431CDBB2FF
:100E00001370172B02D9130010221A707047C046B6
:100E1000EC110020074B9B68103080001950BFF385
:100E20005F8FBFF35F8F044B0021196082F310883E
:100E30007047C04600ED00E0240100D010B50388E3
:100E4000DA0A1C2A05D15B055B1502335B00C0186A
:100E500010BD034B034A0448B12101F08FFCC0468A
:100E600050F80010040D011068F8001010B5091AB0
:100E70000B1F0A4A88180A4A904208D8C90706D4A4
:100E80005B105B055B0D0748184380B210BD064B35
:100E9000064A0748A32101F071FCC046FC07000088
:100EA000FE0F000000E0FFFFB0F80010F80C01108A
:100EB00068F8001010B5091A04394A08090B08D15E
:100EC0004905490D064B0B430380064B13434380F2
:100ED00010BD054B054A0648AB2101F04FFCC0464A
:100EE00000F0FFFF00F8FFFFE0F80010CC0C01104D
:100EF00068F8001001238340034A10681840431E1D
:100F00009841C0B27047C04600E100E0002904D01B
:100F1000034B1860034B18607047034B1860FBE7E6
:100F200080E200E000E100E080E100E010B5012394
:100F300083401800FFF7EAFF10BD0000024B9B68DA
:100F400010308000C058704700ED00E070B504001C
:100F50000D00EFF3108672B60C4B1B68002BFBD014
:100F6000BFF35F8F2000FFF7E9FF094B984201D0E4
:100F7000A84205D1320029002000FFF74BFF70BDC9
:100F8000044B054A0548862101F0F8FB240100D0F6
:100F9000CD010010F0F80010140D011068F80010D9
:100FA000F0B5CE46474680B583B006000D00EFF39E
:100FB000108872B64F4B1B68002BFBD0BFF35F8FBE
:100FC0004D4B9A6834001034A300D7584B4B9F42C6
:100FD00007D0AF4200D18BE00197494BFB1A2F2B72
:100FE00009D9424639003000FFF714FF03B0C0BCF6
:100FF000B946B046F0BD3000FFF77CFF81460021C6
:101000003000FFF793FFBFF35F8FEFF305810029F7
:1010100001D08C4211D10123019C9C430020A36884
:10102000AB4212D00622A256002A0DDB53009B18B9
:101030009B00334A2000D418F1E7324B324A362164
:101040003248FF3101F09AFB2000AB4249D106251E
:101050006557002D2BDB2A4B6A00521992009B1812
:101060009A68A260DA79E2719B795BB2A371002B76
:101070000FDA2748A080224B6A00521992009B1871
:10108000244A11789971157049463000FFF74EFFD8
:10109000A7E7680040198000194BC0180430FFF71B
:1010A000CDFE0100231D1800FFF7E0FEE2E7002956
:1010B00012D100280ED0FF238371174B838015496E
:1010C0000B78A3710E4A154BA41A644163431B0DA0
:1010D0000B70D9E7094FF2E71149201DFFF7EAFE2F
:1010E000D2E7104B084A6A210848FF3101F046FB5D
:1010F000024F76E7240100D000ED00E0CD010010A2
:10110000F011002028F90010E40C011068F800101C
:1011100001BD0000961D002001BDFFFFAAAA00002E
:101120002A1200205CF9001070B5012202432E4BF8
:10113000D31A2F2B28D8EFF30583002B2BD0EFF3F6
:10114000108C72B6294909680029FBD0BFF35F8F64
:10115000254C274905002D1B6D416943090D4CB2F3
:10116000244989689B00C95891421BD0002103295A
:1011700032D81D4B4A00521892009B189B795BB2E3
:10118000A3421FD00131F2E71B4B1C4AC7211C4868
:10119000490001F0F3FA1B4B184A92211848FF311D
:1011A00001F0ECFA134A92681749D150174B1A789C
:1011B00082711C70BFF35F8F0C4B00221A608CF39E
:1011C000108870BD084B4A005518AD005D19FF2608
:1011D000AE710F4AAA80E9E70E4B084AD1210848B0
:1011E000490001F0CBFAC046F0110020240100D0E4
:1011F000AAAA000000ED00E064F90010B00C011094
:1012000068F800108CF90010CD010010961D002028
:1012100001BDFFFF98F900100022044B02E00449D1
:1012200002C30132072AFAD97047C04600E400E041
:1012300080808080024B9C46614489000160704739
:101240004000003410B50400FFF7D6FD0100200077
:10125000FFF7F0FFFF232371BFF35F8F10BD10B5C1
:101260000400FFF7C9FD01002000FFF7E3FFFF23A3
:10127000237100236371BFF35F8F10BD084B5B6A5E
:10128000994209D8064A926A824207D2994201D00D
:10129000012002E0002000E0002070470120FCE770
:1012A0000040054010B500290AD003681B7B8B4223
:1012B00006D38068054B9C4661440901401810BD67
:1012C000034B044A04483C2101F058FAFFFFFF0F8A
:1012D00038FA0010240E01105CFA0010F8B5040072
:1012E0001700FFF7DFFF0668456839002000FFF7A9
:1012F000D9FF026843680120AB4201D802D0002028
:10130000C0B2F8BDB242FBD8F9E7000010B5002B1F
:1013100002DB0260436010BD024B034A03483F21D9
:1013200001F02CFAA0FA0010F00D0110BCFA001028
:1013300010B582B004000498059912184B41002B97
:1013400009DB6846FFF7E2FF009A019B22606360B9
:10135000200002B010BD01225242014BF1E7C0460D
:10136000FFFFFF7F10B5002908D0037B8B4205D318
:1013700000684B005B18033BC01810BD024B034ACA
:101380000348682101F0FAF90CFB0010CC0D0110A4
:1013900028FB001010B5437B8B4201D1012010BD0A
:1013A000FFF7E0FF8378002B01D10020F7E7012051
:1013B000F5E770B50400857B002D01D1280070BDD4
:1013C0002900FFF7CFFF4378A373002B00D1E3730D
:1013D0000023837043700370F0E70000F8B5060047
:1013E0000C001500FFF7BEFF0700002C0DD0002DEC
:1013F00011D0AC4215D029003000FFF7B3FF847044
:101400003B78002B13D13D70F8BD0A4B0A4A0B48BC
:101410006F2101F0B3F90A4B074A0848702101F027
:10142000ADF9084B044A0548712101F0A7F9437052
:101430003D70E9E77CFB0010A80D011028FB0010AF
:1014400088FB001094FB001070B506000D0014001E
:10145000002914D0002A14D04368806898470028D7
:1014600006D0220029003000FFF7B8FF280007E06F
:101470002A0021003000FFF7B1FF200000E010003B
:1014800070BD0800FCE7000070B504000D1E0CD014
:10149000FFF768FF0023837043700370617B2A00AD
:1014A0002000FFF7D1FF607370BD034B034A04486F
:1014B000A52101F063F9C046ACFB0010BC0D011082
:1014C00028FB001070B504000D1E0FD0FFF762FF5F
:1014D00000280BD1E17B00290ED1A37B002B03D187
:1014E000E37B002B0DD1A573E57370BD084B094A52
:1014F0000948F62101F042F92000FFF733FF45705B
:10150000EBE7064B034A0448FB2101F037F9C046DC
:10151000B0FB0010980D011028FB0010D4FB001048
:1015200010B5002907D003681B7B8B4203D3C0682A
:101530000139401810BD034B034A0448412101F012
:101540001DF9C04638FA0010840D01105CFA001035
:1015500070B505000C00080000F0C8FC0949200027
:1015600000F008FCFFF748FC074B9C4660448000F5
:1015700068602C75D0231B061B786B75034BA40089
:10158000E55070BD9D16001040000034641B002023
:101590000A4B1A68EFF3108172B61368002BFCD067
:1015A000BFF35F8F054B1B68BFF35F8F00221A608C
:1015B00081F3108840BF002000217047781D002073
:1015C00010B582B0040000F097FB02000B006846E3
:1015D000FFF79CFE009A019B22606360200002B02E
:1015E00010BD70B584B0040016001D0002A8FFF7FE
:1015F000E7FF029A039B009601952000FFF798FEF3
:10160000200004B070BD0000F0B583B00700019267
:101610001D000AAB1C780BAB1E78002C0BD00068A9
:101620002100FFF7B7FE002809D0194B194A1A48C4
:10163000672101F0A3F80068FFF7BBFE0400002C4F
:1016400002D1200003B0F0BD21003800FFF72AFED0
:10165000019B03604560089B8360099BC3603868F9
:101660002100FFF711FFA042EBD1387D019A2B003A
:1016700000F0C8FB051E01D0002E04D00C9B002BEF
:10168000DFD01D70DDE73868210000F075FDF5E75B
:10169000E8FB0010D80D01105CFA0010F0B5DE4632
:1016A00057464E464546E0B58FB00B900021794B2A
:1016B0008200D458894683E029002000FFF7F2FD1C
:1016C000804602684368921BBB41002B09DD4346FC
:1016D0001A685B680B9800F095FB0023984600267B
:1016E0008AE0002B01D1002AF1D10021584600F0F8
:1016F00039FD0700A84215D143461A685B68089275
:10170000099343469E68DB689846002E10D0290056
:101710002000FFF705FF037899461B021F4327614E
:10172000002069E05C4B5D4A5D488E2101F026F89F
:101730005C4B5A4A5A48922101F020F82369002B49
:1017400000D177E0BB4219D10698079900234242A5
:101750008B4100920193089A099B0CA8FFF7E8FDC2
:101760000C9A0D9B00210491013103910295414691
:10177000019100962000FFF747FF16E04A4B474AC9
:101780004748A12100F0FAFF069A079B002B01D1E0
:10179000002A52D120682900FFF794FE290020007A
:1017A000FFF7BEFE037801330370002323616268F4
:1017B000BFF35F8F13608AF310880120002861D087
:1017C0000CA8FFF7FDFE0C9E0D9F0022002308923F
:1017D00009936268EFF3108A72B61368002BFCD08D
:1017E000BFF35F8F23689B465D7B002D00D063E7CE
:1017F00000239846002600206368BFF35F8F002215
:101800001A608AF31088002ED8D04B461F022F434F
:1018100041463800B047069007916268EFF3108A9E
:1018200072B61368002BFCD0BFF35F8F079B002BB1
:1018300000DA83E7079B002BA6DD2369002BA9D0E4
:10184000BB4219D10CA8FFF7BBFE0C9A0D9B069862
:101850000799009001910CA8FFF76AFD0C9A0D9B67
:1018600000210491013103910295414601910096B6
:101870002000FFF7C9FE98E70B4B084A0848A4214F
:1018800000F07CFF0FB0F0BCBB46B246A946A046B4
:10189000F0BDC046641B002010FC0010080E0110B3
:1018A0005CFA001028FC001034FC001010B50C4B42
:1018B0005B68002B04D00B480A21FFF7BBFC10BD6E
:1018C000074C094A20682300102100F0B6FB0320D2
:1018D00000F006FA03212000FFF73AFEEBE7C046CE
:1018E00038120020781D0020DD12001010B5064BC4
:1018F0005B68002B01D0044810BD044B044A054826
:101900005E2100F03BFFC0463812002070FC001042
:101910006C0D01105CFA0010F0B5DE4657464E46DD
:101920004546E0B58DB0060090461F00169B9A46CE
:10193000179B994618AB1B780793272302AA944656
:10194000634400221A7021E001003000FFF7E8FD37
:1019500000783CE00698002B5CD0079B002B59D008
:101960004946D04704000D0003000B4359D000291D
:1019700040DB08A8FFF724FE089A099B0094019514
:1019800008A8FFF7D5FC089B9846099F7268EFF3FB
:10199000108B72B6136859424B41D9B20691002B95
:1019A000F8D1BFF35F8F273302AA944663440493B0
:1019B0000023039302934B46019353460093424600
:1019C0003B003000FFF720FE0400051EBCD1736809
:1019D000BFF35F8F002119608BF31088002D17D0A3
:1019E000272302AA944663441B78002BB2D100023D
:1019F0002043B0E700236242AB410092019342468C
:101A00003B0008A8FFF794FC089B9846099FBDE798
:101A1000012040420DB0F0BCBB46B246A946A046EC
:101A2000F0BD0698F6E7F0B5C64600B584B00500EF
:101A3000884616001F000AAB1C78FFF757FF029478
:101A4000019700962A004346FFF766FF04B080BC6A
:101A5000B846F0BDF0B5C64600B505000C1E42D034
:101A60004268EFF3108772B61368002BFCD0BFF307
:101A70005F8FE6B22B68984631001800FFF78AFCAA
:101A800000282AD02B69A34213D0240AE4B23100E3
:101A90002800FFF745FD0378A34211D000206B68B2
:101AA000BFF35F8F00221A6087F3108880BCB846AE
:101AB000F0BD0E4B0E4A2C210E48FF3100F05EFEA9
:101AC0003100404600F058FB0028E8D10A4B084A94
:101AD00099210848490000F051FE2B69A342DED14C
:101AE00000232B61DBE70020E0E7C04694FC0010F8
:101AF000540D01105CFA0010B8FC001010B5040081
:101B0000FFF7F4FE2100FFF7A5FF10BD30B587B049
:101B100004000D00EFF30583002B20D10622524272
:101B2000D31712196B418B4202D803D1824201D9DB
:101B30000022002304A8FFF7E9FB02A8FFF740FDFD
:101B400002980399049A059B121A8B41002B0BDC17
:101B500008D02000290000F0DBF807B030BD1448A1
:101B600000F0A4FE002AF4D0124A0498059900233C
:101B70000093FFF758FF002813DAEAE70E4B1A68C4
:101B8000EFF3108172B61368002BFCD0BFF35F8FA8
:101B9000094B1B68BFF35F8F00221A6081F3108826
:101BA00020BF04980599FFF769FB0028E6D0D0E72D
:101BB000BCFC001091150010781D002000B583B00A
:101BC00002000B006846FFF70CFD00980199FFF733
:101BD0009DFF03B000BD10B5FA2292000023002142
:101BE00002F00CFEFFF7EAFF10BD000030B583B035
:101BF00005000C00EFF30583002B0FD10B4A0023E7
:101C00000093FFF710FF00280BDD20BFFFF776FFE2
:101C100028002100FFF732FB03B030BDFFF72EFB99
:101C2000FAE728002100FFF729FBF5E791150010DE
:101C300010B5002B02DB0260436010BD024B034A6B
:101C400003483F2100F09AFDA0FA0010540E011045
:101C5000BCFA001070B5EFF305801038EFF3108C6C
:101C600072B6194B1B68002BFBD0BFF35F8F0122AC
:101C70001300834015494B6315490B6015490978DA
:101C80000C00C440224213D0104A546A124A850004
:101C9000AA58944205D3114AAA580E4C9943217070
:101CA00007E00A4A031D9B0099589950002200E062
:101CB0000022BFF35F8F044B002119608CF3108862
:101CC000002A00D0904770BD280100D00040054098
:101CD0003C700540971D00207C1D0020B81A002094
:101CE00010B50100024A034B1800FFF75BF810BD66
:101CF0000CFD0010951D0020044B5B6A034A906A9E
:101D00001900536A9942F9D17047C0460040054016
:101D1000084B5B6A01E0074B5B6A8B42FBD301E037
:101D2000044B5B6A8B4203D1024B9B6A8342F7D31D
:101D30007047C04600400540F0B583B004000D0078
:101D4000FFF7DAFF06000F0022002B0092197B41FB
:101D5000994202D804D1904202D901225242D317AB
:101D60006846FFF765FF00980199FFF7D1FF03B0C0
:101D7000F0BD000070B504000E00EFF3108572B6E0
:101D80001B4B1B68002BFBD0BFF35F8F002E1CD0BA
:101D90002000FFF7D3F8174B83420BD01900200027
:101DA000FFF7D4F801212000FFF7C0F80123A3407A
:101DB000114A1360114BA400E650BFF35F8F0C4B28
:101DC00000221A6085F3108870BD0C4BA200002120
:101DD000D1500122A2400A490B7893430B70054968
:101DE0002000FFF7DDF800212000FFF79FF8E4E76F
:101DF000280100D0551C001038600540B81A00209A
:101E0000971D0020F0B5DE4600B584B00400150033
:101E100001921E000293FFF76FFF03958E4202D8D6
:101E20004ED185424CD9EFF3108B72B6274B1B680D
:101E3000002BFBD0BFF35F8F254A17780125A54003
:101E4000EBB23B431370234B5D63221D920001995B
:101E5000D150214AA100029888501B6A2B4212D10E
:101E60001C4B1B6C2B4208D00020BFF35F8F174B1D
:101E700000221A608BF3108823E0184B184A194887
:101E8000C52100F07BFCFFF737FF8E4214D802D14A
:101E9000039B834210D80E4B1B78BB420ED00D4BD8
:101EA0001D625D631F222240012393400E4A13608E
:101EB000074B1F700120D8E70020D6E70120D4E7A8
:101EC000012004B080BCBB46F0BDC046280100D054
:101ED000971D0020004005407C1D002030FD0010B3
:101EE000380E011054FD001080E200E0EFF3108C7A
:101EF00072B60B4B1B68002BFBD0BFF35F8F012327
:101F00008340084A136208490A789A430A70BFF36B
:101F10005F8F034B00221A608CF310887047C04615
:101F2000280100D000400540971D002010B5002971
:101F300008D0037B8B4205D300684B005B18033B42
:101F4000C01810BD024B034A0348682100F016FC7C
:101F50000CFB0010AC0E011028FB0010F8B50600B9
:101F60000C001500FFF7E2FF0700002C0DD0002D3C
:101F700011D0AC4215D029003000FFF7D7FF847094
:101F80003B78002B13D13D70F8BD0A4B0A4A0B4831
:101F90006F2100F0F3FB0A4B074A0848702100F05C
:101FA000EDFB084B044A0548712100F0E7FB437044
:101FB0003D70E9E77CFB0010980E011028FB001033
:101FC00088FB001094FB001070B506000D00140093
:101FD000002914D0002A14D043688068984700284C
:101FE00006D0220029003000FFF7B8FF280007E0E4
:101FF0002A0021003000FFF7B1FF200000E01000B0
:1020000070BD0800FCE770B5050000234373013381
:102010008373037BC373012406E021002800FFF7CC
:1020200085FF0134E4B24470297BA142F5D8280031
:10203000FFF77CFF0023437070BD10B50173426051
:102040008360FFF7E0FF10BDF0B5C64600B50500A0
:102050000C1E03D1200080BCB846F0BDFFF766FF20
:102060004678002EF6D031002800FFF75FFF477852
:1020700000239846437021002800FFF757FF43468E
:102080004370320021002800FFF79EFF0400390052
:102090002800FFF7D9FF020021002800FFF794FF76
:1020A0000400D7E7F0B5C64600B504000D001700E0
:1020B000002927D0FFF73AFF4378002B28D18378F7
:1020C000002B2BD101782000FFF7BEFF06008046D1
:1020D000002F0AD0E17B002926D1A37B002B03D15E
:1020E000E37B002B25D1A573E5734346002B26D156
:1020F00029002000FFF71AFF00234370300080BC46
:10210000B846F0BD114B124A1248382100F036FB98
:10211000114B0F4A0F483A2100F030FB0F4B0C4A8D
:102120000C483B2100F02AFB2000FFF7FFFE457022
:10213000D3E70B4B064A0748422100F01FFB310052
:102140002000FFF7F3FE00238370D1E7A0FD00100D
:10215000840E0110A8FD0010ECFD001014FE00100C
:10216000D4FB001070B504000A00457B2900FFF77E
:1021700099FF6073280070BD70B506000C1E40D03A
:10218000437B8B4207D0FFF7D1FE05008178002901
:1021900006D1002036E00121FFF7E4FF012031E005
:1021A0003000FFF7C3FE0178A1420DD03000FFF7E9
:1021B000BDFE4178A1420AD00029F7D1124B134A43
:1021C00013486B3100F0DAFA6B78037001E06B783A
:1021D00043700023AB706B70012221003000FFF7C9
:1021E00061FF0200717B814205D03000FFF7ECFEF9
:1021F0007073012006E0074B044A0548712100F086
:10220000BDFA002070BDC04698F900106C0E011098
:10221000A8FD001038FE001070B5046BE30701D470
:10222000200070BD02003032C0239B0113430A4AD4
:102230001A60456A836AAD01ED18AD02062000F010
:10224000C5F9064901F09CFC0100280001F098FC4A
:102250000021FFF771FDE3E7010300004E0E0000CF
:1022600070B504000E001500FFF7D6FF22002C32D7
:10227000E36A5E40354080235B0113431D602063A9
:1022800070BD000070B505000C00062000F09EF93E
:10229000C000210001F074FCC60908D00E4B9E421C
:1022A00016D87F230340013334005E0800E0012488
:1022B0006C62AE62002200212800FFF7D1FF0620E9
:1022C00000F084F98000A101891901F059FC70BD6A
:1022D0000026024CECE7C046FEFF0000FFFF0000B6
:1022E00010B505394901013AD2001143002B09D03C
:1022F00002220A43012B07D0002111436E22FFF76F
:10230000AFFF10BD0022F4E70421F6E710B5002965
:1023100000D010211022FFF7A3FF10BD002909D023
:102320000A22064B9C46604443425841044B4000FD
:10233000C252704780225200F3E7C0460080FCBFC3
:102340008C1D002070B505000C00062000F03EF941
:10235000061E27D0164B9D4226D08022D203154B55
:102360001A60154B1A60154B9B6811009943FAD1FE
:1023700000212800FFF7D2FF21002800FFF782FF8D
:1023800006000023012208212800FFF7A9FF2A00E8
:102390002C3280239B01134310221A60084B2B63BD
:1023A0000323AB64300070BD80221204D7E7C0461F
:1023B0000080034000E0004000F0004000C000400A
:1023C00001030000F8B5DE4657464E464546E0B5E7
:1023D00006000F0015000A9A934250D31A0E924637
:1023E0001B0298460A9A00234046514601F006FC1B
:1023F00081467400A419A4002F4B9C466444636872
:10240000834200D26060331FDBB29B46012B3CD974
:10241000C0239B012343802212011A60274BB20084
:10242000D158002907D0586901F0AAFB01304300B8
:102430001B18033BFDD26D0123685D40E0222A405A
:1024400080235B0123431A605A46012A28D980233E
:102450009B012343802212011A604B4663604A4667
:1024600000234046514601F0C9FB144BB600985179
:102470000120F0BCBB46B246A946A046F8BD104BB1
:10248000104A1148332100F079F9012FC0D1C0233F
:102490009B01234303221A60A368DB07FCD5CAE72C
:1024A0002168794003220A401A60A3680125BD40D3
:1024B0001D42FAD0CBE7C04600800040D01A002071
:1024C00058FE0010B80E01106CFE001030B583B03D
:1024D0000C2000F011F9FEF745FC00280DD0002378
:1024E00004E02E4A99002E4888500133092BF8D970
:1024F0002A4B2C4A5A6203B030BD2B4B00229A67FC
:1025000000F002F9294B01221A60274B5B6C012B6A
:10251000FBD1274B03221A60234B9B6B012BFBD172
:10252000013300930433234A0121234800F054F877
:1025300005230093214A0121214800F04DF8214B49
:102540000093002202210420FFF73CFF1E4D00955E
:102550002B00002201210520FFF734FF104C0094CE
:102560002300002200210720FFF72CFF0094230006
:10257000002200210820FFF725FF0A4B00932300CB
:10258000002200210920FFF71DFF00952B000022EB
:1025900000210620FFF716FFADE7C046D01A002045
:1025A000006CDC021BB70000008000403CB0004023
:1025B00030B00040002F685900800240008C8647F0
:1025C00000C00240001BB70040597307014B800058
:1025D000C0587047D01A0020F0B5C64600B50400B8
:1025E0000E0017001D00374801F0CAFA8046364B2E
:1025F000FA18364B9A4239D80100380001F0C0FA77
:102600000200103A98235B009A4235D86B1E062BC5
:1026100038D8069B013B062B34D83F09474537D3B2
:102620002D04069B1B031D432368002B36DB284B20
:102630009C4244D080235B01264A1360264A1360E3
:10264000264A926819009143FAD12660A060221DA3
:10265000C0239B01134321221A602268002AFCDA5E
:10266000E56008221A6080BCB846F0BD1C4B1D4ACC
:102670001D48112100F082F81C4B1A4A1A481921F2
:1026800000F07CF81A4B174A17481C2100F076F826
:10269000184B144A1448232100F070F822683F2395
:1026A0001340B342C3D1A3681B051B0D8342BED1A7
:1026B000E368EE22D2021340AB42B8D1D3E78023C5
:1026C0009B01B9E7001BB70080E84BD380F8A93223
:1026D00000C0024000E0004000F0004000C00040A8
:1026E000BCFE0010C80E01101CFF001064FF00109B
:1026F00080FF0010CCFF001080239B000343014AA1
:10270000D362704700800540064BAA2212011A606E
:102710002F22DA60044B054A1A60024B5B68002BDB
:10272000FBDA7047004002400060024000B0FA004F
:1027300000BEFDE703000A4A1268002A08D0084AD2
:102740001068C318074A9A4206D3054A13607047B7
:10275000034A05491160F2E701204042F7E7C0460D
:10276000441B002000000420981D0020002070471A
:1027700001204042704710B5FFF7DAFF30B583B053
:102780000D001900002A0BD0074B084C0192009352
:102790002B000200200002F02DFB0120FFF7C8FFF4
:1027A000034B1A00F1E7C046E8FF0010F8FF0010E5
:1027B000F4FF001070B52B4B2B4A1A602B4B2C4AA0
:1027C0001A602C4B9A682A4B9343FAD12A4C01E0A9
:1027D00008CC9847294B9C42FAD3FFF777FE234B4E
:1027E000274A1A60234B9B68DB43DB01FAD1254B58
:1027F00040229A675A671A67DA66234C09E0234B2E
:10280000234A24488721FFF7B9FF2000FEF71AFD6D
:102810000834214B9C4209D22368002BF5D0012BB0
:10282000EDD12000FEF71BFD0834F2E71B4DA9682F
:102830001B4CC022200002F0C9F8AC60EFF3058306
:10284000002B00D000BEFEF7C7FAFEF7E5FCFFF74D
:102850002DF8144C01E008CC9847134B9C42FAD356
:1028600070BDC04600E00040BFCDFBFE00F0004060
:10287000FE7F3C0000C00040F81700200818002030
:10288000FFFFFF0100F00140F017002028000110B9
:10289000D40E011048000110F817002000ED00E0F0
:1028A0000000002008180020101800200FB400B508
:1028B00083B0084802F06EFA049B002B07D005A9EC
:1028C0000191180002F076FA034802F063FA012041
:1028D000FFF72EFF940001106C0301109A4200D202
:1028E00088547047704710B5002802D00B684968BB
:1028F000984710BD0100002007E083001B185B0013
:10290000501C08601078C01830380A681378303BC3
:10291000DBB2092BF1D97047F0B5DE4657464E467B
:102920004546E0B583B093461F000C9B9A460D9C2C
:102930000E9B99460F9B9B0703D0B8460F000600DD
:1029400022E00192A34688464E46B9460700B442AB
:1029500007D2551C4B4641462020B84701342A0077
:10296000F5E73D004F465C46019B9B46B146464617
:10297000B84637002E0007E0013C551C5346185D51
:1029800043463900B0472A00002CF5D135003E00FF
:1029900047460F9B9B0707D4100003B0F0BCBB4613
:1029A000B246A946A046F0BDB0464E46B9462F00F5
:1029B0005D46531BB342EFD2541C4B464146202088
:1029C000B8472200F5E7F0B5CE46474680B585B05A
:1029D000944698460C9D0D9C0EAB1B789946109A18
:1029E000119B129EB7071CD4002B0CD0F7070AD5F9
:1029F0004F46002F02D10C37374204D0013B02E092
:102A000030272F550134944201D21F2CF8D9F707F3
:102A100007D59C4205D21F2C03D830272F550134EF
:102A2000F5E7F70612D5770505D4002C03D09442BC
:102A300021D09C421FD00F9A102A32D00F9A022A1E
:102A400037D01F2C0AD830222A5501341F2C05D824
:102A50004A46002A33D02D222A5501340396029388
:102A60000194009543466246FFF756FF05B0C0BC8F
:102A7000B946B046F0BD621E012C10D00F9F102F3A
:102A80000BD014000F9A102AD8D1B206D6D51F2C1D
:102A9000D4D858222A550134D3E7023CCBE714009E
:102AA000C9E7B206EED41F2CECD878222A5501349F
:102AB000C7E71F2CD2D860322A550134C1E772070C
:102AC00003D52B222A550134C8E73207C6D5202268
:102AD0002A550134C2E7F0B5DE4657464E46454614
:102AE000E0B593B081468A46089209931CAB10CB9F
:102AF0001B789B461E9D219B9846002C03D11023DA
:102B000042469A4390468023DB0046461E4042469A
:102B10001A4212D0002C22D000260EE03033D9B257
:102B2000771C0AAB99552900200001F029F8AC4226
:102B300016D31F2F14D83E0004002900200001F0F6
:102B40001FF8CBB2092BE9D94246920605D541219F
:102B5000C918C9B20A39C9B2E2E76121F8E727000A
:102B600043460693209B05931F9B049303955B4666
:102B7000029301970AAB0093099B089A5146484675
:102B8000FFF721FF13B0F0BCBB46B246A946A046F2
:102B9000F0BDF0B5DE4657464E464546E0B597B027
:102BA0000A900B910C929A46209B9946219F22AA4B
:102BB00013789B46249B0993259C289B98464A465C
:102BC0003A4302D11032934398468022D2004546C0
:102BD0001540434613420AD04A463A4341D00025A5
:102BE0002E0053460D934D46099B9A461BE02E003E
:102BF00053460D934D46099B9A4614E03033DAB2A2
:102C0000731C99460EAB9A55524623002800390092
:102C100000F0F4FFBC4226D819D04B461F2B1CD81D
:102C20004E4605000F00524623002800390000F0F0
:102C3000E5FFD3B2092BE1D94246920605D54122E0
:102C4000D218D2B20A3AD2B2DAE76122F8E7AA453C
:102C5000E3D94E460D9B9A4608E04E460D9B9A4698
:102C600004E0002602E04E460D9B9A46434606933A
:102C7000279B0593269B0493099B03935B46029332
:102C800001960EAB009353460C9A0B990A98FFF7E6
:102C90009AFE17B0F0BCBB46B246A946A046F0BDAE
:102CA000F0B5DE4657464E464546E0B591B0804603
:102CB00089460C929A461A9C1B9D22002B002000EC
:102CC000290001F026FA002800D0ECE0012252424F
:102CD000D44B2000290001F017FA002800D0E2E0D0
:102CE00001225242D04B2000290001F0F7F90028C0
:102CF00000D0D8E0002200232000290001F0EEF9E6
:102D0000002800D0E4E0069407958023DB001E9A9B
:102D10001A400D921E9A1A4201D106231C9306985E
:102D2000079902000B000892099303000A0002436E
:102D300000D1D9E0080D4005400DBC4EB4466044BA
:102D40000A03120B1E00BA4B13431F0001F0F4F9E3
:102D5000B84AB94B01F07FF9B84AB94B01F054F9C0
:102D6000089009910022B74B3000390001F043F977
:102D7000B54AB64B01F06FF902000B0008980999AB
:102D800001F042F901F0F0F9834601F0D5F90600AF
:102D90000F00AF4AAF4B01F05EF90022AE4B01F0DD
:102DA00033F901F0E1F90890AC4AAD4B300039003D
:102DB00001F051F906000F00089801F0BDF9A94A89
:102DC000A94B01F048F902000B003000390001F076
:102DD00012F906000F0002000B0001F03CF90A9006
:102DE0000B91089BA14A944663440021002208915C
:102DF00009921B0509930023089332003B00300021
:102E0000390001F001F90E900F9132003B000020D3
:102E10008021C90501F0EFF806000F000022944B55
:102E20000A980B9901F0F9F80022924B01F0ECF8A6
:102E300002000B000A980B9901F0EFF800228E4B6C
:102E400001F0E2F802000B000A980B9901F0E5F896
:102E500002000B003000390001F0D6F802000B0030
:102E60000E980F9901F0D9F80022714B01F0CCF8BF
:102E7000089A099B01F0EFF806000F0008960997E1
:102E8000069A079B01F040F900282FD001235B42EE
:102E90009C46E3440022774B3000390001F0BDF836
:102EA0000890099122E01E9B04931D9B03931C9B99
:102EB00002930094019553460C9A4946404600F00F
:102EC000FFF811B0F0BCBB46B246A946A046F0BD23
:102ED0000021002206910792069480231B069C463F
:102EE000AC446346079310E700239B465B4663337D
:102EF000C62B20D804261E9B1B0528D5089A099BA3
:102F0000190011430FD05D4A5D4B0698079901F0F7
:102F1000F3F800287AD000225A4B0698079901F05E
:102F2000DDF8002872D01C9B5B4506DD5A469B1AD3
:102F3000013B1C9303E00526DDE700231C9380235F
:102F4000DB001E9A1A431E92002600239B461D9BFF
:102F50009E4265D29F1B02231E9A1A400A921E9A15
:102F6000134202D0002E00D000275B46002B07D072
:102F7000089A099B0698079901F04FF80690079167
:102F8000002200232000290001F0A8F8002800D02A
:102F90007CE03D4B1E9A1340049303971C9B0293C5
:102FA000069B079C0093019453460C9A4946404661
:102FB00000F086F8002E00D183E71E9B9B0671D59A
:102FC0004525441C5346020049462800C0475A463E
:102FD000D317D2185A4005230593013E04960023C7
:102FE00003930A3302935B46DB0F0193009253462F
:102FF000220049464046FFF76EFD0A9B002B00D198
:103000005FE7020047460C9E1D9D53E01C9B002B72
:103010009DD00D9B002B9AD01C9B013B1C9396E7E7
:10302000002798E7FFFFEF7FFFFFEFFF01FCFFFFA7
:103030000000F03FFB799F501344D33FB3C8608B2F
:10304000288AC63F0000F83F61436F63A787D23FDD
:1030500071A379094F930A400000E03F1655B5BBB4
:10306000B16B0240EF39FAFE422EE63FFF0300004B
:1030700000002C4000002440000018402D431CEBB1
:10308000E2361A3F80842E41FFF7FFFF069C079D22
:103090002200290080200006844661440B0006922D
:1030A000079376E765258CE7541C53464946202054
:1030B000B8472200931BAB42F6D3100001E7C0468D
:1030C000F0B5DE4657464E464546E0B595B006900B
:1030D000079193469946209F1E9A1F9B1000190046
:1030E00001F017F8002831D101225242BF4B1E983F
:1030F0001F9900F0F3FF002837D101225242BC4B48
:103100001E981F9901F000F800283DD10022B94B0C
:103110001E981F9900F0F8FF002850D10022B64BEE
:103120001E981F9900F0DAFF002848D100220023E2
:103130001E981F9900F0D2FF002850D10023984616
:10314000229B5B0500D4B6E0002458E0229B039349
:10315000219B029303230193A84B00934B465A46AD
:1031600007990698FFF7D8FB0EE1229B0393219B5A
:10317000029304230193A24B00934B465A460799AE
:103180000698FFF7C9FBFFE00423229A1A40229910
:103190000B4210D09B4B002A0FD00422229903919E
:1031A00021990291019200934B465A46079906983D
:1031B000FFF7B2FBE8E0944BEDE70322EEE7229B3A
:1031C0000493219B039302971E9B1F9C00930194E1
:1031D0004B465A4607990698FFF762FDD4E01E9ABF
:1031E0001F9B0020002100F006FF1E901F9101236D
:1031F0009846A5E70CAB30221A55013F01341F2C2D
:1032000001D8092FF6D81E981F9900F0ADFF0500D0
:1032100000F092FF02000B001E981F9900F0EBFED9
:103220007A4BFA009B181A685B680A920B9300F0BD
:1032300012FF0890099100F0BBFF060000F078FF34
:1032400002000B000898099900F0D5FE089009913A
:1032500000226F4B00F058FF00282ED001363000BE
:1032600000F066FF02000B000A980B9900F03CFF8B
:10327000002801D001350026002F2CD1280000F0B5
:103280005BFF02000B001E981F9900F0B4FE0600C1
:103290000F0000225E4B00F021FF002846D10022E3
:1032A0005B4B3000390000F02FFF00283ED1EB07C8
:1032B0003CD501353AE0062746E70022544B0898F2
:1032C000099900F00BFF0028D6D1002E01D0F3079A
:1032D000D2D50136D0E7AA461F2C11D8013F0A21CA
:1032E000300000F04DFC651C30310CAB19550A2143
:1032F000300000F045FC092E0ED906002C00EBE74B
:1033000055461F2C0CD87B1E002F09D00CAA30214B
:1033100011551F000134F4E72B0055461C00F0E75F
:103320001F2C03D80CAB2E221A5501341F2C10D899
:103330000A21280000F0FCFB661C30310CAB19554B
:103340000A21280000F0F4FB051E01D03400EDE74F
:1033500034000323229A1340012B1CD01F2C06D8C3
:103360004346002B32D00CAB2D221A550134229B40
:103370000393219B029301940CAB00934B465A4656
:1033800007990698FFF7C8FA15B0F0BCBB46B246DD
:10339000A946A046F0BD219B002B13D04346002B2D
:1033A00002D10C3313420FD0219B013B2193190012
:1033B00003E00CAB30221A5501348C42CED21F2CC4
:1033C000F7D9CBE72199F8E72199F6E7229B5B072C
:1033D00004D50CAB2B221A550134C8E7229B1B07DE
:1033E000C5D50CAB20221A550134C0E7FFFFEFFF13
:1033F000FFFFEF7F65CDCD4165CDCDC1B0000110A0
:10340000B4000110A4000110AC00011080100110E4
:103410000000E03FF0B5DE4657464E464546E0B573
:1034200093B08246884693461193002900D10DE35C
:1034300000255646119B1878002800D109E325285D
:1034400009D06C1C5B462A004146B047119B0133F2
:1034500011932500EEE701331193002720E00123AB
:103460001F4301321192012418E002231F4301324D
:103470001192012412E004231F430132119201240E
:103480000CE008231F4301321192012406E01023AF
:103490001F4301321192012400E00024002C09D0C6
:1034A000119A1378203BD9B21029F6D88B00C8495D
:1034B000CB589F46119B1A781300303BDBB2092B87
:1034C00010D92A2A13D00B94119B1A782E2A1ED0B9
:1034D000119A1378683BD9B2122959D88B00BD498B
:1034E000CB589F4611A8FFF705FA0B90ECE71C9B01
:1034F0001A1D1C921B68002B04DB0B93119B0133DC
:103500001193E1E7022217435B420B93F6E7802217
:10351000D20017435A1C11925A781300303BDBB289
:10352000092B0BD92A2AD3D11C9B1A1D1C921C686B
:10353000002C08DB119B01331193C9E711A8FFF799
:10354000D9F90400C4E70024F4E780235B003B437F
:10355000511C119151786C2901D01F0018E0C02333
:103560009B001F430232119212E080233B43511C07
:1035700011915178682901D01F0009E0C0231F4331
:103580000232119204E080235B001F43013211924A
:10359000119B1878672818D8252800D24CE2030020
:1035A000253BDAB2422A00D946E293008A4AD35830
:1035B0009F4680239B001F4301321192E8E780233E
:1035C0005B001F4301321192E2E7782800D933E211
:1035D000692800D230E20200693AD2B20123934056
:1035E0007E4A134211D11A0600D500E25B0500D4D1
:1035F00022E21C9B1A1D1C921B689A46002C00D0CC
:10360000B2E10122524253468EE16F280ED006D815
:1036100058283DD0622804D102239C4608E078282F
:1036200039D010239F43063B9C4601E008239C466B
:10363000582833D0692803D0642801D00C2297433E
:103640007A0501D50122974369282AD0642828D019
:10365000BA0500D59FE0FA0500D5C1E07A0600D48E
:10366000D3E01C9A111D1C911168FF220A40059796
:103670000B9B0493039463460293002301930092EF
:103680005B462A0041463000FFF725FA050027E097
:1036900010239C46CCE710239C46C9E72022174301
:1036A000C8E7BA0520D4FA0550D47A0666D51C9A24
:1036B000111D1C911168FF220A40D01711184140BA
:1036C00005970B9B0493039463460293D20F0192D8
:1036D00000915B462A0041463000FFF7FCF90500E7
:1036E000119B01331193A5E61C9A073207218A43E7
:1036F000110008311C91116853689946DB170C932F
:103700000D930C9A0D9B100048400E904A46534072
:103710000F930E980F990C9A0D9B801A99410E9059
:103720000F9108970B9B079306946346049300231D
:1037300005934B46DA0F0292009001915B462A00F6
:1037400041463000FFF725FA0500C9E71C9A111D14
:103750001C911268D0171118414005970B9B0493D8
:10376000039463460293D20F019200915B462A00B4
:1037700041463000FFF7AFF90500B1E73A0605D53D
:103780001C9A111D1C910023D25E96E71C9A111DF4
:103790001C91126891E71C9A073207218A43110095
:1037A00008311C9108970B9B07930694634604937A
:1037B00000230593029353681268009201935B46BD
:1037C0002A0041463000FFF7E4F9050088E7C046CB
:1037D000E40E0110280F0110740F01104190000039
:1037E0001C9A111D1C9105970B9B0493039463462F
:1037F000029300230193136800935B462A0041461D
:103800003000FFF768F905006AE73A0606D51C9A0A
:10381000111D1C9112681204120C28E71C9A111D2C
:103820001C91126823E7462819D01C9B07330722F6
:1038300093431A0008321C9204970B9A0392029445
:103840001A685B68009201935B462A00414630008B
:10385000FFF736FC0500119B01331193EAE52023A5
:103860001F43E2E7672801D0472802D180231B01CC
:103870001F43452801D0472801D120231F431C9B0B
:103880000733072293431A0008321C9204970B9ABD
:10389000039202941A685B68009201935B462A00C7
:1038A00041463000FFF7FCF90500119B01331193ED
:1038B000C0E502231A003A4091463B421DD0012444
:1038C0001C9B1A1D1C926F1C18785B462A004146EF
:1038D000B0474B46002B14D1119B013311933D008F
:1038E000A8E5571C5B4641462020B04723003A001C
:1038F0005C1C9D42F5D81500E2E701232A000B9DD0
:10390000F6E73A00B1460B9E06E0571C5B4641467F
:103910002020C8472C003A00651CA642F5D81700A5
:103920004E46D9E701330A001978002902D0511E0A
:10393000002AF7D152469B1A8022D200390011404A
:103940008946174202D0A34200D923000222110067
:10395000394010913A4209D02A00250057469A462C
:1039600033004E46994621E022004CE62A004546A7
:10397000A04606E0541C5B4629002020B0473B00CF
:1039800022005F1C0B999942F4D84446A8463B009C
:10399000250057469A4633004E46994606E01D00DC
:1039A0000137541C5B464146C8472200387800283E
:1039B00004D0002EF4D06B1E002DF0D1150053461C
:1039C0004E46109A002A03D1119B0133119331E521
:1039D0000B9F2A0006E0551C5B4641462020B0475D
:1039E00023002A005C1C9F42F5D81500ECE7212338
:1039F0003B431C9A111D1C911268059308230493E4
:103A00000394083302930023019300925B462A003B
:103A100041463000FFF75FF80500119B0133119319
:103A200008E56C1C5B462A0041462520B047119BE7
:103A3000013311932500FDE46C1C5B462A004146CE
:103A4000B047119B013311932500F3E40A4B9A46CA
:103A5000EEE4B2465D450DD35B465A1E5B464146D9
:103A60000020D047280013B0F0BCBB46B246A946A0
:103A7000A046F0BD2A00F1E7E52800100EB430B5ED
:103A800084B0010007AC08CC03940122054D0094DA
:103A900052422800FFF7BEFC04B030BC08BC03B0A3
:103AA0001847C046DD28001000B585B0029003918C
:103AB00001210448009313004A4202A9FFF7AAFC1F
:103AC00005B000BDE728001001480421014B18474C
:103AD00060120020F93A001010B5010018231B886D
:103AE00014221088984710BD10B5010018231B88B8
:103AF00016221088984710BDF0B5C64600B50700DD
:103B00000E0000250123984600E00135B5420AD297
:103B1000AC003C192068FFF7DFFF20600028F4D1DB
:103B200000239846F1E7404680BCB846F0BD00004F
:103B3000124A936F9B0815D29066D166002905D072
:103B4000FFE7FFE7FFE7516F106F704704B5802173
:103B50000906C2175140002800D0C8430BF0E8FD09
:103B6000002104BDF0B5146E556E576F166FFFF748
:103B7000E3FF1466556657671667F0BD000000D076
:103B8000114A936F9B0813D210665166002905D025
:103B9000FFE7FFE7FFE7516F106F704704B500289C
:103BA00001D00020C0430BF0C3FD002104BDC0467E
:103BB000F0B5146E556E576F166FFFF7E5FF14667C
:103BC000556657671667F0BD000000D094464A4A14
:103BD000926F9208624601D228E0C046F0B5464E88
:103BE000346E756E776F366F00F020F89446424A57
:103BF00014665566576716676246F0BD94463E4A9E
:103C0000926F9208624601D254E0C046F0B53A4E37
:103C1000346E756E776F366F00F04CF89446364A06
:103C200014665566576716676246F0BD002B24DBA5
:103C300011D000293EDA00B5C943404200D101311C
:103C400000F038F8C943404200D10131DB43524211
:103C500000D1013300BD002AEBD1002801D1002999
:103C600005D00020C90FC90701D1C043410800B5E4
:103C70000BF036FD0022002300BD00B500290ADB51
:103C8000DB43524200D1013300F014F8C9434042F3
:103C900000D1013100BDC943404200D10131DB43B5
:103CA000524200D1013300F005F8DB43524200D10B
:103CB000013300BD002923D1002B18D1002A0CD0DC
:103CC000BC460D4F38667A6600210023FFE7FFE708
:103CD000FFE77A6F386F67467047002801D00748C2
:103CE000010000B50BF0FCFC0022002300BD020027
:103CF0000B00002000217047000000D0FFFFFFFFF5
:103D0000002B00D0BFE0130C28D1002AE7D080B4EC
:103D1000114F39667A66FFE7FFE730B4040C7B6F1A
:103D2000396F1B0423433B667A66FFE7FFE7FFE733
:103D3000C04684B27B6F3D6F1B0423433B667A66AB
:103D4000FFE7FFE7C04600232C042D0C7A6F386F85
:103D500000196941B0BC7047000000D0F0B594462E
:103D60000025140E01D112020835140F01D11201E1
:103D70000435940F01D192000235D40F01D15200C5
:103D80000135D40B0134254F7C66254C3C660E0C66
:103D900093B2FFE7FFE7FFE73C6F6643360C77031C
:103DA000BE467343DF0B5B04C01AB941130C734367
:103DB000DB18C91ACE086643360CB64493B2734377
:103DC0001F0F1B01C01AB941130C73431F0B1B05B6
:103DD000C01AB941860D8F023E436643360C092D49
:103DE00024DB520A7243801A7703460A6643360C74
:103DF00016235B1BDE40DF40BF1964466643821B0F
:103E00007046043506330100D940A840C01900D3DC
:103E10000131A24206D20023F0BD0000000000D014
:103E2000FFFFFFFF121B0130F3D3F1E709277F1BD0
:103E3000FE406446A2B27243801A00D20139220CBD
:103E40007243130C1204821A99410B007046043518
:103E500013370100F940A840801900D30131002B2D
:103E600002D1A2420AD2F0BD013000D30131121BAF
:103E7000FAD2013BF8D1A24200D2F0BD013000D30A
:103E80000131121BF7E7F0B51C0C00D080E00CB438
:103E900000251C0A04D11B02160E334312020835FA
:103EA0001C0B04D11B01160F3343120104359C0B6C
:103EB00004D19B00960F334392000235DC0B02D1F4
:103EC00092185B4101351C00971864410134464F3C
:103ED0007C66464C3C660E0CFFE7FFE7FFE7C046FA
:103EE0003C6F6643360C7703BE4697B27743C01BE0
:103EF00000D20139C01B00D201399FB27743C91BE0
:103F0000C91B170C77437E04FF0B801BB941CE08F9
:103F10006643360C0C2D33DBB644120B1F053A43B7
:103F20001B0B97B27743C01B00D201399FB2774376
:103F3000C91B170C77433E043F0C801BB941860D0B
:103F40008F023E43664329277F1BFE400C3D774688
:103F5000AF40BF1930BCA2B2ABB272437343801AF8
:103F60009941220C7243130C1204801A99410200E9
:103F70000B000137001BA941F9D2781E0021F0BDCA
:103F80000C277F1BFE4077467F0BAF40FF19E0E711
:103F900000245D1C07D0144F7D663966FFE7FFE7FC
:103FA000FFE7FFE73C6F95B29EB265436643401B57
:103FB000B141150C1E0C6543664336042F0C3E437D
:103FC0002D04401BB141994204D202000B00200095
:103FD0000021F0BD01D19042F7D3801A99410134FC
:103FE0009942F2D3F6E70000000000D0FFFFFFFF88
:103FF00048404140484018B41B4B5B68FC46019365
:1040000008BD04DFCF42001018B4174B1B68FC46F4
:10401000019308BD00DFD94200109446134A926F05
:10402000920809D2624618B40F4BDB68FC46019334
:1040300008BD0CDF914500100C4AF0B5146E556EAA
:10404000576F166F6246FFF7EEFF084A1466556613
:1040500057671667F0BD18B4034B9B68FC46019385
:1040600008BD08DF35440010741B0020000000D09C
:10407000FFB550404240504059404B40594000E04D
:10408000FFB5154F4C00640D03D0BC4204D10C03A6
:1040900014D80020090D09055C00640D03D0BC4252
:1040A00004D11C030AD800221B0D1B0501264B401E
:1040B00009D44B4003D58B4200D18242FFBD9942C7
:1040C000FCD19042FFBD0B43DB1803431343F5D0F3
:1040D000C9434918FFBD0000FF07000000B5FFF706
:1040E000CFFF804100BDC04600B5FFF7C9FF01D931
:1040F000002000BD012000BD00B5FFF7B9FF01D9C8
:10410000002000BD012000BD00B5FFF7B1FF8041D8
:1041100000BD012040054A00121804D85A001218A8
:1041200001D8002070470120704700207047000030
:104130000021002805D17047C1174840401AFAD025
:10414000C90713B5064B1B6898470CBC441CA2401A
:104150001005120B0349091B09051943114310BD32
:10416000741C00201F04000010B54C00620D802359
:10417000D218DB00D21A5B057E2A10DD9E3A13DAD4
:10418000CC170903490819435242D1406400013455
:104190001532202A05DAD0400843604310BD0020C4
:1041A00010BD0846604310BDC80FC018013810BDCF
:1041B00018B4044B5B6AFC46019308BD24DF4147F9
:1041C00000100000741B002070B513231C78012C14
:1041D00012D0012C12DC214B214A93642148FFF7B5
:1041E0007BFC214B186070BD1C491D4A9800815012
:1041F00001331F2BF8D9ECE70023FAE71B48FFF740
:1042000073FC05001A48FFF76FFC023803789B0027
:104210007F2B09DD12488022290000F0D7FB022CF9
:1042200008D0022CDADCD6E7124B134A13483221AD
:10423000FEF7A4FA124B1A88B5231B029A4209D141
:10424000104B1A88104B9A4204D1104B1A88104B0D
:104250009A42E6D00020FEF729FBC04695420010A6
:10426000741B00204C330000741C002053440000D9
:1042700053460000BC000110D010011010010110C5
:1042800054380000D8380000494600009C3800002F
:104290005946000007B56046002800D100BE0188DD
:1042A0000A0A0230DF2AFAD1C9B2820804D302888E
:1042B00040880004104300E00068024A5050039018
:1042C00007BD0000741B00200FB403BC0CBCF0B58C
:1042D0000124E407634000E0F0B50C0DCF0F661E2B
:1042E0003605891B640503D3C943404200D301311D
:1042F000640D03D0661CF60A07D0E41B00207F0083
:10430000791C89078912803C24031D0DDF0F6E1E66
:1043100036059B1B6D0503D3DB43524200D30133AB
:104320006D0D03D06E1CF60A07D0ED1B00227F0036
:104330007B1C9B079B12803D2D032F1B661B58D4B3
:10434000A446202E46DA20371400BC401D00BD4094
:10435000F24033412A4380185941CB0F05D0C9435D
:10436000C043002264425041514162464D0D28D164
:104370000D0D07D100281FD0241940414941013AB1
:104380000D0DF9D0640006D3013000D30131002CAB
:1043900001D140084000013A0BD4941CE40A04D136
:1043A00012051144DB071944F0BDD907204B19430E
:1043B00000E0D9070020F0BD0029DDD1002CDBD1C1
:1043C000F0BD0132C6074008CD0728434908002E3A
:1043D000E1D0D9E73C2E29DA203E40371400BC401A
:1043E00000D00124F24014431A00BB401C43D317F1
:1043F000ACE7AC46202F08DA20360400B4400D00AC
:10440000B540F84039412843A5E73C2F0CDA203F5E
:1044100040360400B44000D00124F84004430800B2
:10442000B1400C43C117EAE710001900002494E7DB
:104430000000F07FF0B50C0D661E3605891BE60AFC
:104440006405640D02D0651CED0A04D00020012132
:104450000905803C2403A4461C0D671E3F05DB1B99
:10446000E70A6405640D02D0651CED0A04D0002241
:1044700001231B05803C24037740644497B484B235
:1044800096B27443070C7E43150C6F4380B26843A9
:10449000361802D3012000043F183004350C0019EF
:1044A0007D41844688B29AB250430C0C62431F0C83
:1044B0007C438EB27E43921902D301263604A4199E
:1044C0001604170C3618674101BC81B29AB25143E9
:1044D000040C62431B0C5C4380B25843121802D395
:1044E0000120000424181004130C401863412D18F7
:1044F0005E410020474106BC88B293B258430C0C81
:104500006343120C544389B251435B1802D3012117
:104510000904641819041A0C091862416D185641EF
:104520000020474118BCF902720D1143F0026A0DD8
:104530001043ED020A0D03D16D1940414941013B81
:10454000124E9B1B7600B3420ED26D0007D3013092
:10455000002671416646354301D1400840001B05E5
:10456000C918E4072144F0BD0BDA013306D101304C
:1045700004D101314F0D01D04908F2E7E1070020D5
:10458000F0BD013631050020EBE70000FF0300001D
:10459000F0B51C0D671E3F05DB1BE70A6405640DC3
:1045A00002D0661CF60A04D0002201231B05803CC1
:1045B0002403D0252D060026F6432E661E096E66BE
:1045C000CE0FF619B44649004F0D02D07E1CF60AF4
:1045D00003D000200021403F3F033E1BB600B444FF
:1045E000013F7F05C91B49082E6F013676089C02E2
:1045F000950D25437543ED137543AD1301356D10CE
:10460000F603761B0CB4CC02450D2C43A2B2B3B218
:104610005A43270C7B43350C6F43A4B26C431B19E0
:1046200002D3012424043F191C041D0CA4187D414D
:1046300024196D41009A91B2ACB26143170C7C43CE
:104640002B0C5F4392B25A43A41802D301221204E6
:10465000BF182204230C52187B41019C6C431B1988
:10466000520ED9010A434401A01A81B2B2B2514399
:1046700003145A43360C734387B27743D617D219C3
:1046800000277E4136049B191704160C7F185E41E3
:104690007316ED18F301002680337541A90F06D17A
:1046A0006400690AE8055B0A184309D22FE0042276
:1046B000944480337541A90AA8059B0A184326D360
:1046C000404149412404009A019B0D005543641B5D
:1046D0004343E41A95B286B27543170C7E43030C2C
:1046E0005F4392B25A43B61802D301221204BF1894
:1046F0003204330C52197B4152429C41002C02D4AB
:104700000022013051414008CA071043490802B055
:104710006246D7079210084BD218084B9A4203D230
:1047200012058918C919F0BD0020002A01DC3900E2
:10473000F0BD01331905F5E7FD030000FE07000099
:10474000002200B5203200F004F8080000BD00008F
:1047500000220B150AD410B5944600F031F8141459
:10476000013400DA0021CB17144C2047002000212F
:1047700070476244343A0CD40C2A07DA04009140A2
:10478000904052422032D440214310BDD843D943F7
:1047900010BD203207D40C469440524220321141C1
:1047A000D040204310BD0800C917203203D4524224
:1047B0002032104110BD1800190010BD73470010C1
:1047C0000A0DCC0F531E1B05C91A520503D3C9434A
:1047D000404200D30131520D03D0531CDB0A07D0F5
:1047E000121B00206400611C89078912803A1203A1
:1047F000014BD21A70470000FF03000051434343AE
:10480000C9188C46110C83B24B4310B4040C61439D
:1048100092B280B2504362431C041B0C001910BCBE
:1048200059411304120CC0185141614470470000F3
:1048300070B513231E782A48FFF756F90500012E9C
:1048400011D0012E09DDAB1E1B789B007F2B40DDB4
:1048500024488022290000F0B9F82348FFF73CF9EA
:10486000224B186070BD1F485422290000F0AEF89A
:104870001F4B1A881F4B9A421CD1A7239B011A88F1
:104880001D4B9A4216D11D4B1A881D4B9A4211D1CD
:104890001C4B1A8894239B019A420BD11A4B1A88FD
:1048A0001A4B9A4206D11A4B1A681A4B9A4201D1F6
:1048B000152307E01848FDF7F9FF184C094A99003D
:1048C0008C5001331F2BF8D9144B064A1362D36165
:1048D000B7E7134B134A14484221FDF74FFFC04678
:1048E00053460000781C00204C330000741C00204C
:1048F000EE290000C40F0000C20D0000962B00003E
:10490000C0B50000182B0000CC2A000010B5000034
:10491000FC2C000051ED8764F4FF00102D490010BD
:1049200064010110E41001109801011007B5604600
:10493000002800D100BE01880A0A0230DF2AFAD11D
:10494000C9B2820804D3028840880004104300E002
:104950000068024A5050039007BD0000781C0020F8
:1049600010B5002804D04018034B984200D810BD61
:104970000248FDF79BFFC04600000420E80101103B
:1049800070B5050008F0BCFE04002900FFF7E8FF41
:10499000200070BD70B50D0009F0B8F904002900C1
:1049A000FFF7DEFF200070BD10B508F0B3FE10BDAC
:1049B00001480421014B184770120020F93A0010F9
:1049C000014B1B681847000070120020014B5B6808
:1049D000184700007012002010B5FFF7D1FF10BD7E
:1049E00010B5FFF7E1FF10BD10B5FFF7DDFF10BDFB
:1049F000084B5B6A994209D8064A926A824207D2FA
:104A0000994201D0012002E0002000E00020704720
:104A10000120FCE70040054010B50300080011002C
:104A20001B68984710BD0000F8B507000D00160080
:104A3000437D002B02D0002400200CE0036811000D
:104A4000280098472DE03B7D10E03B681548022187
:104A50009847601C0134B44214DA002CF3DD2B19A2
:104A6000013B1B780D3B5A425341DBB22A5D0A2AB7
:104A7000F0D1002BEED1A042E7DA3B68211A2818CA
:104A80009847E2E7B04203DA3B68311A28189847A2
:104A9000002E06DDAD19013D2B780D3B5A425341E6
:104AA0003B75F8BD2811011070B505000368002B97
:104AB00016D00C4B1C6805E0290004C92000FFF744
:104AC000B3FF2469002C09D02368002BF9D0064BD2
:104AD0001B68002BF0D0A342F3D1EDE700232B603D
:104AE00070BDC046381B0020401B002070B505007B
:104AF0000C000B68802B05D023685A1C2260E41838
:104B0000257170BD0800FFF7CFFFF5E710B5002B4A
:104B100002DB0260436010BD024B034A03483F21A1
:104B2000FDF72CFEA0FA00102C110110BCFA0010A9
:104B300010B582B00400FDF7DFF802000B006846F4
:104B4000FFF7E4FF009A019B22606360200002B03F
:104B500010BD000070B582B0060014001D00FA22DE
:104B60009200002306980021FFF748FE02000B0088
:104B700012196B41002B09DB6846FFF7C7FF009A4B
:104B8000019B32607360300002B070BD012252425E
:104B9000004BF1E7FFFFFF7F30B585B004000D004B
:104BA00002A8FFF7C5FF029A039B00952000FFF7BC
:104BB000D1FF200005B030BDF8B5CE46474680B5E0
:104BC00007000E00914698461BE0A368002B04D016
:104BD000310038009847002818DC2469002C06D0E2
:104BE0000C4D2D68002DF0D0A542F6D1EDE74846DA
:104BF0004146FFF7FDFE002806D101200021FDF708
:104C00009BF8054B1C68E9E701204042C0BCB9464F
:104C1000B046F8BD401B0020381B002000B583B013
:104C2000FA2189006846FFF7B7FF009A019B024806
:104C30000AF09EFD03B000BDF017002010B5024839
:104C40000AF046FD10BDC046F0170020F0B5CE4674
:104C5000474680B583B006000D0090461C00FFF764
:104C6000DDFF81466B1C05D0002C08D0194F1A4B74
:104C70001C6807E0300009F087FF0500F4E7174FD4
:104C8000F5E72469002C17D02368002BF9D0144BCA
:104C90001B68002B01D0A342F3D12A003100200071
:104CA000B8474346002BECD06B46D91D0A230B7046
:104CB00001222000B847E4E74B46002B07D16B1ECA
:104CC0009D41E8B203B0C0BCB946B046F0BDFFF7A5
:104CD000B5FFF4E7194A0010381B0020294A0010DC
:104CE000401B002010B5030008001100002B05D167
:104CF000044B1A685B68FFF75FFF10BD012040425C
:104D0000FBE7C046300E011010B503000800140088
:104D1000013B012B06D8002300222100FFF796FF5C
:104D2000200010BD01204042FBE7012040427047B7
:104D3000012040427047012040427047030000209C
:104D400002229A4240417047094A01E010331A009A
:104D50001368002B08D08342F8D1002907D10369DA
:104D600013600023036102E0002900D01060704747
:104D7000381B002010B5064B1C6801E098472469D9
:104D8000002C03D06368002BF8D1F8E710BDC046B3
:104D9000381B002070B5050009F0F6FE0400002362
:104DA000012201002800FFF751FFFFF7E3FF200079
:104DB00070BD000070B5A2B004000E00FFF72EFF1A
:104DC0000500002301930A483300220001A9FEF7E1
:104DD0006BFE040001A8FFF767FEFFF7CBFF002D75
:104DE00002D1200022B070BDFFF728FFF9E7C046CE
:104DF000ED4A00100FB400B583B004A901C90191B8
:104E0000FFF7D8FF03B008BC04B0184710B500F096
:104E1000FFF8012010BD000010B582B00C00144B4B
:104E2000C3185A425341134A5B009B5E8B4204D025
:104E30006B46DA1D1470002115E06B46DA1D0D2358
:104E4000137000210029F3D183699B06FCD41378E9
:104E5000036001310132F5E783699B06FCD41378C6
:104E60000360013101320029F6D002B010BDC04606
:104E70000080FCBF8C1D002082B000226B46D91D33
:104E800006E08369DB06FCD403680B700132013154
:104E9000002AF6D06B46D87902B0704770B506008C
:104EA0000D00002405E0315D034B1868FFF7B4FFE7
:104EB0000134AC42F7DB70BD901D0020F8B5060050
:104EC0000D00002705E07C1CF719FFF7D5FF3870AF
:104ED0002700AF4204DA0E4A10688269D206F2D582
:104EE0000C4A1268002A0CD0094A126850219163BA
:104EF00010003430526B18391140802252010243A5
:104F00001160002F01D03800F8BD033FFBE7C04619
:104F1000901D0020C81A002010B5064B1B68002BFE
:104F200006D0054A126800219163044A1068984728
:104F300010BDC046C81A0020901D0020CC1A0020C9
:104F400070B505000E001C4B1A681C4BD318594253
:104F50004B4114331C0000281ED0194B1B68002B3A
:104F600004D0174B1D60174B1E6070BD1649200002
:104F7000FBF7ECFF01212000FBF7D8FF0E4B1B686D
:104F800050229A63190034315B6B183A1A4080231F
:104F90005B010B431A60E4E7094B1B68002BE0D070
:104FA0000023936300212000FBF7C0FF0649200087
:104FB000FBF7F6FFD5E7C046901D00200080FCBF40
:104FC000C81A0020CC1A0020194F001070B50D002F
:104FD0001C000D4B1860002A0BDA002C0EDA0A4B6D
:104FE00018682900FDF7AEF908480121FFF7ACFE6B
:104FF00070BD02211000FBF75FFEEEE702212000EA
:10500000FBF75AFEEBE7C046901D002080120020FF
:1050100010B5064B1B78064B1B78E12101230022BB
:1050200049020448FFF7D2FF10BDC04638270110DF
:1050300034270110004003400123084A1360084A46
:105040001360084B9A6801239343FAD1064B01225F
:105050001A60054B1B68DB05FBD5704700E000407C
:1050600000F0004000C0004000C00440F0B5DE4643
:1050700057464E464546E0B583B0070088460620B1
:10508000FDF7A4FA7B68022213409A463B1D99461D
:10509000C0239B0149460B431A600224BB4607000C
:1050A00000E02C00FE2C1DD801970026A51C28022C
:1050B000424600230021FFF7A1FB002903D1B142A2
:1050C000EFD1B842EDD980256D002600012D0DD914
:1050D0006C1E310061433800FEF752FD404505D893
:1050E0002500F3E780256D002600EFE734003E0041
:1050F0005F463C616B1E1B023A685340FF2212025E
:105100001340802252013A43136080239B014A4698
:10511000134352461A60290061433000FEF730FD08
:1051200003B0F0BCBB46B246A946A046F0BD0000A5
:1051300070B50400174B984228D080229202164B7B
:105140001A60164B1A60164B9B6810009843FAD1F0
:105150002000FFF78BFF656802210D40231DC02250
:1051600092011A431160226807267240C836164021
:1051700080225201224316608022920113431D6057
:105180002434224303241460196070BD802252022B
:10519000D5E7C04600C0034000E0004000F00040FA
:1051A00000C00040042010B500F0E2F8024B034AB2
:1051B0000349036000F01EFE7C1101104D520010E7
:1051C00068110110042010B500F0D2F8024B034A18
:1051D0000349036000F00EFEB81101108552001063
:1051E000A411011070B50500082000F0C1F82900D5
:1051F000040001F007F82000044A054900F0FAFD18
:10520000200000F0CBF800F061F9C046FD6000100E
:105210002013011070B50500082000F0A9F829003E
:10522000040001F033F82000044A054900F0E2FDD3
:10523000200000F0B3F800F049F9C0463D610010CD
:1052400040130110004870476C02011010B50400B3
:10525000024B036000F008FA200010BD7C11011021
:1052600010B50400044B036000F0FEF92000042197
:10527000FFF7BAFB200010BD7C11011000487047F9
:105280007C02011010B50400024B0360FFF7DEFF43
:10529000200010BDB811011010B50400044B0360CC
:1052A000FFF7D4FF20000421FFF79EFB200010BD74
:1052B000B811011070B5194C083863680668002BE6
:1052C00020D08519AB421DD85A6821D00434002A59
:1052D00006D10DE051681C1D1300002907D00A00FB
:1052E0009542F7D803D12A68B6186A685A602368CD
:1052F0001A689918884208D05B6806604360236882
:10530000586001E04360606070BD92191A60FBE76D
:105310001B6842609B1903606060F5E71C19002060
:10532000020030B50832083000D3082207230F49A5
:10533000073248689A430431002804D10EE0011D69
:10534000406800280AD003689A42F8D845689C1A39
:10535000072C04D803602B000B60083030BD831885
:105360005D6008681C600260F6E7C0461C190020FA
:1053700070B580300500FFF703FB041E07D08022C4
:1053800000212000FFF71CFB2000803070BD2800AA
:10539000FFF7C6FF041EF2D100F0CCFC074B8038AB
:1053A0009A68DB6810B5D318984201D2824202D3C2
:1053B000FFF7FAFA10BDFFF77DFFFBE71C1900208D
:1053C000F0B5CE464746002580B53B4E89B03B48F8
:1053D0007560B560F56008F041F908230293384B19
:1053E0000400039309230593364B04950693042385
:1053F000079300283FD0344D237828003A3B5A4287
:105400005341E4180F22210009F0B4F9002802D119
:10541000E37B2E2B16D020003A2109F027FA041E38
:10542000EAD1079C402C24DC049B002B00D10633DE
:105430003E335C43A400F46020D109B0C0BCB9463F
:10544000B046F0BD08AB9946103402AF3B687868AF
:105450009846002B05D01A00210009F08BF900288E
:1054600003D14346E35C3D2B13D00C37B945EDD156
:10547000D1E74024D8E78824E400F4602000FFF757
:105480007FFAB060002815D000237060046043608C
:10549000D3E7404601302018002201A908F08CFE15
:1054A000019C23783A2B01D0002BB4D10028B2DB29
:1054B000B860B0E7F060C0E71C1900209802011046
:1054C000AC020110B8020110C40201101EB400F0B9
:1054D00093F81EBC0AF034F9F0B5C64600B51E00BC
:1054E00003780C0082B0472B1FD00020284D2B687A
:1054F00001909B682800984701239846002804D013
:10550000019B1B68019302239846236829001F69A9
:105510002000012301AAB847002826D1002398467D
:10552000404602B080BCB846F0BD43784E2BDCD17B
:105530008378552BD9D1C378432BD6D10379462B09
:105540001BD0432BD1D143792B2BCED183792B2B5D
:10555000CBD1C279012AC8D8002301930300203B94
:105560001D68012A04D05830C1E7019B3360D7E79A
:105570002B00783B28001D68B9E743794F2BB4D145
:105580008379522BB1D1C079024D0028AFD0ACE75E
:10559000481201101C12011010B5040000F078F838
:1055A00022002378203A472B05D08368002B20D196
:1055B0008260012010BD63784E2BF6D1A378552B65
:1055C000F3D1E378432BF0D12379432BEDD16379E9
:1055D0002B2BEAD1A3792B2BE7D1E379012BE4D84C
:1055E000D3690133D361012BE3D183689361826076
:1055F000DFE700F09FFBC04610B500F049F803005C
:10560000806800282DD02022825C472A03D0002207
:105610009A60203010BD263A825C4E2AF7D12C3A8F
:10562000825C552AF3D1323A825C432AEFD11F3A89
:10563000825C432AEBD11E3A825C2B2AE7D1053AE1
:10564000825C2B2AE3D1043A825C012ADFD8C2694A
:10565000013AC261002ADCD182699A600023836129
:10566000D7E700F067FBC0467047C0467047C046AA
:1056700000487047D402011010B504000421FFF760
:10568000B3F9200010BDC046004870471019002033
:105690000048704710190020F0B5D64646464F46E0
:1056A0008A46C0B50600502824D00F2404400C2C94
:1056B00000D96FE03848A400005987465478107824
:1056C00024020443907800042043D4782406044341
:1056D000101D002C08D070253540102D00D19246A9
:1056E00076B25444002E0ADB1C60E0BCBA46B146D8
:1056F000A846F0BDD01C0322904310C8F4E72468EC
:10570000F2E7547810782402044390780004204390
:10571000D4782406044310000830DAE7547810786F
:1057200024020443901CD4E75478107824020443E4
:1057300024042414901CCCE77F21150000240027AA
:1057400088464046297801350840B840044348B2AD
:1057500007370028F5DB28001F2FBAD84D06B8D52B
:105760000125BD406D422C43B5E700218C467F31B9
:1057700015000024884647466146287801350740D1
:105780008F400721894640B23C43CC440028F2DBDD
:1057900028009EE707F05AFF64120110030010B5BD
:1057A0000800FF2B10D070221340302B13D004D8E8
:1057B000202B07D109F084FF07E0402B06D109F028
:1057C000CFFF02E0202B04D8002010BD0020502B7A
:1057D000FBD007F03BFF09F0A3FFF6E7F8B50500A3
:1057E0000E0014000020002D02D0280009F0B8FFA0
:1057F0002060771C3678FF2E28D160603B78781CBB
:10580000FF2B32D01023002500217F262375320084
:10581000037801301A408A405BB215430731002BF0
:10582000F5DB4519E560002200257F26037801306D
:105830006375310003780130194091405BB20D432C
:105840000732002BF5DB45192561F8BD2900300032
:10585000FFF7A4FF3A000100231D3000FFF71CFFF3
:1058600007003B78781CFF2BCCD100252375D9E7A6
:10587000F0B557464546DE464E460023E0B597B0A4
:105880000C9303330F0090460340012B00D1AEE090
:10589000022B0ED14146380009F032FF002800D01B
:1058A000A3E0082017B0F0BCBB46B246A946A0460C
:1058B000F0BD002B00D033E208331C00044003424B
:1058C000E8D1012510AB0393039B0C220021009328
:1058D00040460023109709F00BFF404609F068FF8F
:1058E00004900028D6D02C43039D04992A004046FA
:1058F0000594FFF773FF2B7D4146040018000693C3
:10590000FFF74CFF0FABA8600F22079000939B4658
:1059100000210023404609F033FF01220F9B9343EF
:10592000013B99462B699A469C4242D2109B6E7D60
:1059300002933B007F2527004C469946002130000A
:10594000FFF72CFF3A0001000DAB3000FFF7A4FE7B
:10595000002107003000FFF721FF3A0001000EABE5
:105960003000FFF799FE002107003000FFF716FF17
:105970003A0001005B463000FFF78EFE0021002256
:105980002F00037801301F4097405BB23943073244
:10599000002BF5DB029A0D9B94466344A34207D883
:1059A0000E9A9B18A34200D985E007008245C5D80E
:1059B0004F46002300259A460133059AD20771D538
:1059C0000C9B0B935B460D22009300210023404665
:1059D00009F0D6FE0F9B06203B620B9B3D637B626A
:1059E0005346BB62049BFB625CE709205AE708232D
:1059F0001C0010AA04400392034201D0022563E771
:105A00000D6A0023009200210D22404609F0B8FEE5
:105A1000109B9D42F2D1039B0C2200930021002396
:105A20004046109709F064FE3D6BBC6AFB6A002D8E
:105A30003ED004930FABA2469B465346002B00DAA0
:105A4000B8E003265B460022002100934046002375
:105A50000F9709F04DFE5B4601220021009340465E
:105A600000230F9409F044FE5B460F2200210093AF
:105A70004046002309F084FE01230F9A00211340C1
:105A80002B430F935B460F2200934046002309F0FF
:105A90002FFE022E01D0072004E73800FFF77CFD1F
:105AA0000720FFE6082205990A426DD1012B7FD11C
:105AB000380007F0ABFC0F9B4F46002B00D1E9E606
:105AC000039A55685D19002900D10AE14C1E54441F
:105AD000002D00D1DEE6059A0823110019400A9135
